:1000000071C000008EC000008CC000008AC00000DB
:1000100088C0000086C0000084C0000082C00000CC
:1000200080C000007EC000007CC000007AC00000DC
:1000300078C0000076C0000074C0000072C00000EC
:1000400070C000006EC000006CC000006AC00000FC
:1000500068C0000066C0000064C00000AAC00000C4
:1000600060C0000018C20000F6C200005AC00000C4
:1000700058C0000056C0000054C0000052C000002C
:1000800050C000004EC000004CC000004AC000003C
:100090003AC2000012C3000044C0000042C0000089
:1000A00040C000003EC000003CC000003AC000005C
:1000B00038C0000036C0000034C0000032C000006C
:1000C00030C000002EC000002CC0000054C2000050
:1000D00026C3000026C0000086C2000052C30000F4
:1000E00020C0000011241FBECFEFD1E2DEBFCDBF84
:1000F00000E00CBF12E0A0E0B2E0E2E5F8E000E0D2
:100100000BBF02C007900D92AA32B107D9F724E0C5
:10011000AAE2B2E001C01D92AB3CB207E1F702D007
:1001200096C36ECF60D380E034D141E065E080E0DB
:1001300075D160E072E080E01AD18091C4009091A6
:10014000C50060913502709136024AE026D1609177
:1001500035027091360280E00AD16DE07AE080E0ED
:1001600006D10FD01ED08823E9F342E065E080E09D
:1001700055D168E780E079D043E065E080E04ED17A
:10018000F1CF16BC84B5826084BD85B5836085BD22
:10019000EEE6F0E080818260808389EF87BD78940D
:1001A000089580913402882319F01092340281E07E
:1001B00008951F920F920FB60F9211240BB60F9253
:1001C0002F933F934F935F936F937F938F939F935F
:1001D000AF93EF93FF9386B58A5F86BDE0912A02C5
:1001E000F0912B023196F0932B02E0932A0220919A
:1001F0002C0230912D0240912E0250912F026091DD
:100200003002709131028091320290913302A1E06C
:1002100012D320932C0230932D0240932E02509340
:100220002F026093300270933102809332029093D8
:100230003302E83EF34039F410922B0210922A0266
:1002400081E080933402FF91EF91AF919F918F9164
:100250007F916F915F914F913F912F910F900BBEC6
:100260000F900FBE0F901F901895813031F138F02C
:10027000823009F440C0833009F45BC00895A7E7D9
:10028000B2E0E8E7F2E02C91808130E090E0019765
:100290008F73992728173907B1F3A7E7B2E0EC91DC
:1002A00081E08E0F8C93F0E0E95CFD4F6083E1EC20
:1002B000F0E08081806280830895AFE7B3E0E0E8FA
:1002C000F3E02C91808130E090E001978F739927C3
:1002D00028173907B1F3AFE7B3E0EC9181E08E0F57
:1002E0008C93F0E0E15CFC4F6083E9ECF0E080810E
:1002F000806280830895A7E8B4E0E8E8F4E02C91F8
:10030000808130E090E001978F7399272817390793
:10031000B1F3A7E8B4E0EC9181E08E0F8C93F0E0AC
:10032000E95BFB4F6083E1EDF0E0808180628083D8
:100330000895ABEFB2E0ECEFF2E02C91808130E079
:1003400090E001978F73992728173907B1F3ABEF26
:10035000B2E0EC9181E08E0F8C93F0E0E554FD4F1C
:100360006083E1E3F1E080818062808308951F93E0
:10037000CF93DF93EB016881662339F0182F219624
:10038000812F73DF69916111FBCFDF91CF911F91B5
:10039000089569E172E0EBCF08950F931F93CF9317
:1003A000DF93EC01FB01892B21F480E38083118230
:1003B00030C020E0042F10E001C0232FCE01B8018F
:1003C00026D2BC010A9710F0695F7F4F31E0320FEF
:1003D000605D7F4FDF01A20FB11D6C93CE01B801AC
:1003E00016D2EB01DF01A30FB11D1C92209729F754
:1003F000222379F080E0EF01C80FD11D9881DF0141
:10040000A20FB11D3C9138839C938F5F21508217BE
:1004100090F3DF91CF911F910F9108950F931F9348
:10042000CF93DF93CDB7DEB760970FB6F894DEBFFA
:100430000FBECDBF182F862F042F4AE0BE016F5F7D
:100440007F4F90E0AADF4AE0BE01675F7F4F802FB9
:1004500090E0A3DF6EE172E0812F89DFBE01675F6C
:100460007F4F812F84DF66E272E0812F80DFBE0143
:100470006F5F7F4F812F7BDF68E272E0812F77DF34
:1004800060960FB6F894DEBF0FBECDBFDF91CF915F
:100490001F910F9108951F920F920FB60F92112482
:1004A0000BB60F922F933F938F939F93AF93BF936E
:1004B000EF93FF93ADE3B3E0EEE3F3E02C918081A3
:1004C00030E090E001978F73992728173907B1F32F
:1004D000ADE3B3E0EC9181E08E0F8C938091C60088
:1004E000F0E0E350FD4F8083FF91EF91BF91AF911A
:1004F0009F918F913F912F910F900BBE0F900FBE48
:100500000F901F9018951F920F920FB60F92112403
:100510000BB60F922F933F938F939F93AF93BF93FD
:10052000EF93FF93A3E0B4E0E4E0F4E02C9180814A
:1005300030E090E001978F73992728173907B1F3BE
:10054000A3E0B4E0EC9181E08E0F8C938091CE001B
:10055000F0E0ED53FC4F8083FF91EF91BF91AF919D
:100560009F918F913F912F910F900BBE0F900FBED7
:100570000F901F9018951F920F920FB60F92112493
:100580000BB60F922F933F938F939F93AF93BF938D
:10059000EF93FF93A9EBB2E0EAEBF2E02C918081BC
:1005A00030E090E001978F73992728173907B1F34E
:1005B000A9EBB2E0EC9181E08E0F8C938091D60094
:1005C000F0E0E758FD4F8083FF91EF91BF91AF912D
:1005D0009F918F913F912F910F900BBE0F900FBE67
:1005E0000F901F9018951F920F920FB60F92112423
:1005F0000BB60F922F933F938F939F93AF93BF931D
:10060000EF93FF93A5E4B4E0E6E4F4E02C9180815D
:1006100030E090E001978F73992728173907B1F3DD
:10062000A5E4B4E0EC9181E08E0F8C9380913601CB
:10063000F0E0EB5FFB4F8083FF91EF91BF91AF91B3
:100640009F918F913F912F910F900BBE0F900FBEF6
:100650000F901F9018951F920F920FB60F921124B2
:100660000BB60F928F939F93AF93BF93EF93FF932C
:100670009091770280917802981306C0E1ECF0E047
:1006800080818F7D80830CC0A8E7B2E0EC9181E08F
:100690008E0F8C93F0E0E95CFD4F80818093C60063
:1006A000FF91EF91BF91AF919F918F910F900BBEF2
:1006B0000F900FBE0F901F9018951F920F920FB6BC
:1006C0000F9211240BB60F928F939F93AF93BF930A
:1006D000EF93FF9390917F0380918003981306C05E
:1006E000E9ECF0E080818F7D80830CC0A0E8B3E06E
:1006F000EC9181E08E0F8C93F0E0E15CFC4F808107
:100700008093CE00FF91EF91BF91AF919F918F9118
:100710000F900BBE0F900FBE0F901F9018951F9259
:100720000F920FB60F9211240BB60F928F939F93D7
:10073000AF93BF93EF93FF939091870480918804C8
:10074000981306C0E1EDF0E080818F7D80830CC0BE
:10075000A8E8B4E0EC9181E08E0F8C93F0E0E95BC7
:10076000FB4F80818093D600FF91EF91BF91AF91B5
:100770009F918F910F900BBE0F900FBE0F901F9007
:1007800018951F920F920FB60F9211240BB60F926D
:100790008F939F93AF93BF93EF93FF939091FB023F
:1007A0008091FC02981306C0E1E3F1E080818F7D27
:1007B00080830CC0ACEFB2E0EC9181E08E0F8C93A3
:1007C000F0E0E554FD4F808180933601FF91EF9179
:1007D000BF91AF919F918F910F900BBE0F900FBE65
:1007E0000F901F9018958EEF8DB914BC85B582605F
:1007F00085BD6099FECF16BC609BFECF15BC86B54B
:1008000090E001979093C5008093C4000895AA1BBF
:10081000BB1B51E107C0AA1FBB1FA617B70710F0EB
:10082000A61BB70B881F991F5A95A9F7809590951D
:10083000BC01CD0108950024A7FD00942A0F301DAE
:10084000401D501D601D701D801D901D0895F89461
:02085000FFCFD8
:100852004175746F62617564696E6720646F6E655D
:100862002E2055425252303D001B5B324A001B5B28
:0A087200003B34306D003B006600CF
:00000001FF
