:1000000071C000008EC000008CC000008AC00000DB
:1000100088C0000086C0000084C0000082C00000CC
:1000200080C000007EC000007CC000007AC00000DC
:1000300078C0000076C0000074C0000072C00000EC
:1000400070C000006EC000006CC000006AC00000FC
:1000500068C0000066C0000064C0000062C000000C
:1000600060C000008CC300006AC400005AC00000D9
:1000700058C0000056C0000054C0000052C000002C
:1000800050C000004EC000004CC000004AC000003C
:10009000AEC3000086C4000044C0000042C000009F
:1000A00040C000003EC000003CC000003AC000005C
:1000B00038C0000036C0000034C0000032C000006C
:1000C00030C000002EC000002CC00000C8C30000DB
:1000D0009AC4000026C00000FAC30000C6C4000095
:1000E00020C0000011241FBECFEFD1E2DEBFCDBF84
:1000F00000E00CBF12E0A0E0B2E0EEE3FBE000E0C5
:100100000BBF02C007900D92A233B107D9F724E0CC
:10011000A2E3B2E001C01D92A234B207E1F702D01F
:100120000CC56ECFCF93DF93CDB7DEB764970FB614
:10013000F894DEBF0FBECDBF86D002E010E021E014
:1001400030E048E050E069E370E380E090E09CD06C
:10015000EE24E394F12C00E010E028E030E040E0F1
:1001600052EC61E070E082E090E08ED028E030E078
:1001700040E052EC61E070E083E090E085D080E008
:1001800090E09AD180E090E02DD242E050E062E031
:1001900070E080E090E096D261E270E080E090E074
:1001A00066D260E072E080E090E06ED142E050E024
:1001B00066E170E080E090E085D260E270E080E08F
:1001C00090E055D2BE016F5F7F4F80E090E0CAD1D2
:1001D000CE010196B6D28C0140E150E0BE016F5FC6
:1001E0007F4F04D244E050E065E070E080E090E0B2
:1001F00069D262E270E080E090E039D265E172E0BD
:1002000080E090E041D1BE016F5F7F4F80E090E0E1
:100210003BD142E050E0BE016F5F7F4FC801E6D1A5
:1002200045E050E065E070E080E090E04BD26BE1AB
:1002300072E080E090E028D1BE016F5F7F4F80E0E8
:1002400090E022D19CCF1092380310923903109283
:100250007202109273021092BC031092BD031092AE
:100260007A0310927B031092B4021092B50210929E
:100270004004109241041092FE031092FF0310926A
:10028000F6021092F70208958F929F92AF92BF925A
:10029000CF92DF92FF920F931F93CF93DF93142F90
:1002A000F22E78948330B8F0833089F50F2EF4E382
:1002B0008F2E99249394F02DC2E3D1E00F2EF1E319
:1002C000CF2EDD24D394F02D0F2EF0E3AF2EBB24E0
:1002D000B394F02D1CC090E0EC01CC0FDD1FCC0FCF
:1002E000DD1FCC0FDD1F5E0120ECA20EB11C6E01E4
:1002F000E1ECCE0ED11CCE53DF4F82959295907FCC
:100300009827807F98274C01F4EC8F0E911C21E0F8
:10031000F21204C00F2EF3E0FF2EF02D9B0140E0FF
:1003200050E060E472E48FE090E0E5D321503109C1
:10033000F40131832083F501108288E9F60180837E
:10034000412F50E045505109440F551F10E0015016
:100350001109000F111F000F111F000F111F042B97
:10036000F0E1FF9EC0011124082B0883DF91CF919B
:100370001F910F91FF90DF90CF90BF90AF909F9013
:100380008F900895813031F138F0823009F440C007
:10039000833009F45BC00895A2E7B2E0E3E7F2E03E
:1003A0002C91808130E090E001978F739927281776
:1003B0003907B1F3A2E7B2E0EC9181E08E0F8C93A4
:1003C000F0E0EE5CFD4F6083E1ECF0E08081806264
:1003D00080830895AAE7B3E0EBE7F3E02C918081F6
:1003E00030E090E001978F73992728173907B1F310
:1003F000AAE7B3E0EC9181E08E0F8C93F0E0E65C2D
:10040000FC4F6083E9ECF0E0808180628083089596
:10041000A0E4B4E0E1E4F4E02C91808130E090E0ED
:1004200001978F73992728173907B1F3A0E4B4E037
:10043000EC9181E08E0F8C93F0E0E050FC4F6083F4
:10044000E1EDF0E08081806280830895A6EFB2E064
:10045000E7EFF2E02C91808130E090E001978F731C
:10046000992728173907B1F3A6EFB2E0EC9181E0A4
:100470008E0F8C93F0E0EA54FD4F6083E1E3F1E0EE
:1004800080818062808308950F931F93CF93DF93C1
:10049000FB019081992359F0EB012196082F10E080
:1004A000692F70E0C8016EDF99919111F9CFDF914A
:1004B000CF911F910F9108958130C9F028F08230BB
:1004C00049F18330D1F14CC0A8E3B3E0E9E3F3E0B4
:1004D0009C9180819817E1F3A9E3B3E0EC9181E06E
:1004E0008E0F8C93F0E0E850FD4F80810895ACEBC7
:1004F000B3E0EDEBF3E09C9180819817E1F3ADEB75
:10050000B3E0EC9181E08E0F8C93F0E0E458FC4F67
:1005100080810895A4EBB2E0E5EBF2E09C9180814C
:100520009817E1F3A5EBB2E0EC9181E08E0F8C938C
:10053000F0E0EC58FD4F80810895AEEFB3E0EFEFAF
:10054000F3E09C9180819817E1F3AFEFB3E0EC9179
:1005500081E08E0F8C93F0E0E254FC4F808108958F
:1005600080E00895EF92FF920F931F93CF93DF9354
:10057000D82F7B0100E010E08D2F9EDFC82F0231C5
:10058000110578F4883079F08D3019F1682F8D2FAE
:10059000F9DEF701C0830F5F1F4FC70101967C0191
:1005A000EBCF8830A1F40115110531F368E08D2FF0
:1005B000E9DE60E28D2FE6DE68E08D2FE3DEF701F5
:1005C000108201501109C70101977C01D5CF8D30F0
:1005D00099F6F7011082DF91CF911F910F91FF9053
:1005E000EF90089561E272E04FCF08950F931F934B
:1005F000CF93DF93EC01FB01892B21F480E380830F
:10060000118230C020E0042F10E001C0232FCE0162
:10061000B8015DD2BC010A9710F0695F7F4F31E0ED
:10062000320F605D7F4FDF01A20FB11D6C93CE01D1
:10063000B8014DD2EB01DF01A30FB11D1C92209731
:1006400029F7222379F080E0EF01C80FD11D9881AE
:10065000DF01A20FB11D3C9138839C938F5F215025
:10066000821790F3DF91CF911F910F9108951F93FF
:10067000CF93DF93CDB7DEB728970FB6F894DEBFE0
:100680000FBECDBF182F862F4AE050E0BE016F5F2E
:100690007F4F90E0ABDF66E272E0812FF5DEBE01B6
:1006A0006F5F7F4F812FF0DE69E272E0812FECDE19
:1006B00028960FB6F894DEBF0FBECDBFDF91CF9165
:1006C0001F9108950F931F93CF93DF93CDB7DEB79C
:1006D00060970FB6F894DEBF0FBECDBF182F862FE0
:1006E000042F4AE050E0BE016F5F7F4F90E07EDF55
:1006F0004AE050E0BE01675F7F4F802F90E076DFD9
:1007000066E272E0812FC0DEBE01675F7F4F812FFE
:10071000BBDE6EE272E0812FB7DEBE016F5F7F4FFE
:10072000812FB2DE60E372E0812FAEDE60960FB6FD
:10073000F894DEBF0FBECDBFDF91CF911F910F9117
:100740000895FC01908190539A30A8F420E030E0A5
:10075000A901440F551F220F331F220F331F220FF1
:10076000331F240F351F9193290F311D9081905312
:100770009A3070F302C020E030E0C90108951F9262
:100780000F920FB60F9211240BB60F922F933F9337
:100790008F939F93AF93BF93EF93FF93A8E3B3E03F
:1007A000E9E3F3E02C91808130E090E001978F73D2
:1007B000992728173907B1F3A8E3B3E0EC9181E05A
:1007C0008E0F8C938091C600F0E0E850FD4F80833F
:1007D000FF91EF91BF91AF919F918F913F912F9199
:1007E0000F900BBE0F900FBE0F901F9018951F9289
:1007F0000F920FB60F9211240BB60F922F933F93C7
:100800008F939F93AF93BF93EF93FF93ACEBB3E0C2
:10081000EDEBF3E02C91808130E090E001978F7355
:10082000992728173907B1F3ACEBB3E0EC9181E0DD
:100830008E0F8C938091CE00F0E0E458FC4F8083C3
:10084000FF91EF91BF91AF919F918F913F912F9128
:100850000F900BBE0F900FBE0F901F9018951F9218
:100860000F920FB60F9211240BB60F922F933F9356
:100870008F939F93AF93BF93EF93FF93A4EBB2E05B
:10088000E5EBF2E02C91808130E090E001978F73EE
:10089000992728173907B1F3A4EBB2E0EC9181E076
:1008A0008E0F8C938091D600F0E0EC58FD4F808342
:1008B000FF91EF91BF91AF919F918F913F912F91B8
:1008C0000F900BBE0F900FBE0F901F9018951F92A8
:1008D0000F920FB60F9211240BB60F922F933F93E6
:1008E0008F939F93AF93BF93EF93FF93AEEFB3E0DC
:1008F000EFEFF3E02C91808130E090E001978F736F
:10090000992728173907B1F3AEEFB3E0EC9181E0F6
:100910008E0F8C9380913601F0E0E254FC4F80837F
:10092000FF91EF91BF91AF919F918F913F912F9147
:100930000F900BBE0F900FBE0F901F9018951F9237
:100940000F920FB60F9211240BB60F928F939F93B5
:10095000AF93BF93EF93FF939091720280917302D4
:10096000981306C0E1ECF0E080818F7D80830CC09D
:10097000A3E7B2E0EC9181E08E0F8C93F0E0EE5CA7
:10098000FD4F80818093C600FF91EF91BF91AF91A1
:100990009F918F910F900BBE0F900FBE0F901F90E5
:1009A00018951F920F920FB60F9211240BB60F924B
:1009B0008F939F93AF93BF93EF93FF9390917A039D
:1009C00080917B03981306C0E9ECF0E080818F7D75
:1009D00080830CC0ABE7B3E0EC9181E08E0F8C9389
:1009E000F0E0E65CFC4F80818093CE00FF91EF91B8
:1009F000BF91AF919F918F910F900BBE0F900FBE43
:100A00000F901F9018951F920F920FB60F921124FE
:100A10000BB60F928F939F93AF93BF93EF93FF9378
:100A20009091400480914104981306C0E1EDF0E0FC
:100A300080818F7D80830CC0A1E4B4E0EC9181E0E3
:100A40008E0F8C93F0E0E050FC4F80818093D600B5
:100A5000FF91EF91BF91AF919F918F910F900BBE3E
:100A60000F900FBE0F901F9018951F920F920FB608
:100A70000F9211240BB60F928F939F93AF93BF9356
:100A8000EF93FF939091F6028091F702981306C0BE
:100A9000E1E3F1E080818F7D80830CC0A7EFB2E0BD
:100AA000EC9181E08E0F8C93F0E0EA54FD4F808151
:100AB00080933601FF91EF91BF91AF919F918F91FC
:100AC0000F900BBE0F900FBE0F901F901895AA1B92
:100AD000BB1B51E107C0AA1FBB1FA617B70710F029
:100AE000A61BB70B881F991F5A95A9F7809590955B
:100AF000BC01CD010895A1E21A2EAA1BBB1BFD016A
:100B00000DC0AA1FBB1FEE1FFF1FA217B307E407EC
:100B1000F50720F0A21BB30BE40BF50B661F771F44
:100B2000881F991F1A9469F7609570958095909524
:0E0B30009B01AC01BD01CF010895F894FFCFE9
:100B3E00496E74726F6475636520756E206E756D87
:100B4E0065726F3A004865783A200042696E3A2025
:100B5E00001B5B324A001B5B003B34306D003B00D8
:020B6E0066001F
:00000001FF
