S0120000507261637469636120382E7372656393
S113000071C000008EC000008CC000008AC00000D7
S113001088C0000086C0000084C0000082C00000C8
S113002080C000007EC000007CC000007AC00000D8
S113003078C0000076C0000074C0000072C00000E8
S113004070C000006EC000006CC000006AC00000F8
S113005068C0000066C0000064C0000062C0000008
S113006060C00000D9C30000B7C400005AC000003B
S113007058C0000056C0000054C0000052C0000028
S113008050C000004EC000004CC000004AC0000038
S1130090FBC30000D3C4000044C0000042C0000001
S11300A040C000003EC000003CC000003AC0000058
S11300B038C0000036C0000034C0000032C0000068
S11300C030C000002EC000002CC0000015C4000089
S11300D0E7C4000026C0000047C4000013C50000A8
S11300E020C0000011241FBECFEFD1E2DEBFCDBF80
S11300F000E00CBF12E0A0E0B2E0E8EDFBE000E0BD
S11301000BBF02C007900D92A633B107D9F724E0C4
S1130110A6E3B2E001C01D92AA3CB207E1F708D001
S113012059C56ECF109204018FEF80930101089599
S1130130CF93DF93CDB7DEB7A8970FB6F894DEBFA1
S11301400FBECDBFEFDF6894EE24E1F801E028E0B4
S113015049E350E360E070E080E095D0EE24E3945E
S113016000E028E040E052EC61E070E082E08BD0F7
S113017028E040E052EC61E070E083E084D080E06D
S1130180EBD180E07FD242E062E080E0EAD261E23B
S113019080E0BDD260E072E080E0CCD142E066E174
S11301A080E0DFD260E280E0B2D2BE016F5F7F4FB9
S11301B080E028D265E172E080E0BCD1BE016F5FCF
S11301C07F4F80E0B7D165E172E080E0B3D1BE013A
S11301D06B5E7F4F80E016D244E065E080E0C1D2E0
S11301E0BE016B5E7F4F80E0A5D1CE010196F6D2B1
S11301F08C0140E1BE016F5F7F4F48D245E065E06E
S113020080E0AFD262E280E082D268E172E080E016
S113021091D1BE016F5F7F4F80E08CD142E0BE017F
S11302206F5F7F4FC80132D246E065E080E099D22B
S11302306EE172E080E07ED1BE016F5F7F4F80E0AF
S113024079D19DCF10923C0310923D031092760217
S113025010927702109202041092030410927E030B
S113026010927F031092B8021092B9021092860481
S11302701092870410924404109245041092FA02DA
S11302801092FB0208956F927F928F929F92CF9269
S1130290DF92EF92FF920F931F93CF93DF9300D0DF
S11302A000D0CDB7DEB749835A836B837C83122F8A
S11302B08330F9F090E06C01CC0CDD1CCC0CDD1C1F
S11302C0CC0CDD1C960120543F4F3E832D83460108
S11302D031EC830E911CE2ECCE0ED11C82959295EA
S11302E0907F9827807F98273C01F4EC6F0E711C57
S11302F016C00F2EF2E3CF2EDD24D394F02D0F2E53
S1130300F1E38F2E99249394F02D20E331E03E8382
S11303102D830F2EF4E36F2E77247394F02D013088
S113032009F403E060E874E88EE190E029813A8101
S11303304B815C812DD421503109F3013183208319
S1130340ED81FE8180818260808388E9F40180836D
S11303508E2D90E001977C01EE0CFF1CEE0CFF1C2F
S1130360EE0CFF1C812F90E00597880F991F8E29B2
S1130370F0E10F9F80011124802BF601808362DF5E
S1130380789426960FB6F894DEBF0FBECDBFDF91EA
S1130390CF911F910F91FF90EF90DF90CF909F909E
S11303A08F907F906F9008958130B9F138F082304A
S11303B009F462C0833009F48EC00895A6E7B2E060
S11303C0E7E7F2E02C91808130E090E001978F73B1
S11303D0992728173907B1F3909176028091770213
S11303E0981310C0A6E7B2E0EC9181E08E0F8C93D5
S11303F0F0E0EA5CFD4F6083E1ECF0E08081806234
S113040080830895A6E7B2E0EC9181E08E0F8C938F
S1130410F0E0EA5CFD4F60830895AEE7B3E0EFE7F8
S1130420F3E02C91808130E090E001978F7399275D
S113043028173907B1F390917E0380917F039813B5
S113044010C0AEE7B3E0EC9181E08E0F8C93F0E046
S1130450E25CFC4F6083E9ECF0E0808180628083A1
S11304600895AEE7B3E0EC9181E08E0F8C93F0E059
S1130470E25CFC4F60830895A6E8B4E0E7E8F4E0AA
S11304802C91808130E090E001978F739927281791
S11304903907B1F39091860480918704981310C0B2
S11304A0A6E8B4E0EC9181E08E0F8C93F0E0EA5B77
S11304B0FB4F6083E1EDF0E08081806280830895EA
S11304C0A6E8B4E0EC9181E08E0F8C93F0E0EA5B57
S11304D0FB4F60830895AAEFB2E0EBEFF2E02C91BA
S11304E0808130E090E001978F73992728173907AE
S11304F0B1F39091FA028091FB02981310C0AAEF15
S1130500B2E0EC9181E08E0F8C93F0E0E654FD4F65
S11305106083E1E3F1E08081806280830895AAEF43
S1130520B2E0EC9181E08E0F8C93F0E0E654FD4F45
S1130530608308951F93CF93DF93EB016881662353
S113054039F0182F2196812F2FDF69916111FBCF8C
S1130550DF91CF911F9108958130C9F028F0823046
S113056049F18330D1F14CC0ACE3B3E0EDE3F3E007
S11305709C9180819813FCCFADE3B3E0EC9181E0D2
S11305808E0F8C93F0E0E450FD4F80810895A2E03B
S1130590B4E0E3E0F4E09C9180819813FCCFA3E005
S11305A0B4E0EC9181E08E0F8C93F0E0EE53FC4FBD
S11305B080810895A8EBB2E0E9EBF2E09C918081A0
S11305C09813FCCFA9EBB2E0EC9181E08E0F8C93F1
S11305D0F0E0E858FD4F80810895A4E4B4E0E5E438
S11305E0F4E09C9180819813FCCFA5E4B4E0EC91F5
S11305F081E08E0F8C93F0E0EC5FFB4F80810895D7
S113060080E00895EF92FF920F931F93CF93DF93AF
S1130610D82F7B0100E010E08D2F9EDFC82F03311F
S1130620110578F4883079F08D3019F1682F8D2F09
S1130630BBDEF701C0830F5F1F4FC70101967C012A
S1130640EBCF8830A1F40115110531F368E08D2F4B
S1130650ABDE60E28D2FA8DE68E08D2FA5DEF7010A
S1130660108201501109C70101977C01D5CF8D304B
S113067099F6F7011082DF91CF911F910F91FF90AE
S1130680EF90089564E272E055CF08950F931F939D
S1130690CF93DF93EC01FB01892B21F480E380836A
S11306A0118230C020E0042F10E001C0232FCE01BE
S11306B0B8015AD2BC010A9710F0695F7F4F31E04C
S11306C0320F605D7F4FDF01A20FB11D6C93CE012D
S11306D0B8014AD2EB01DF01A30FB11D1C92209790
S11306E029F7222379F080E0EF01C80FD11D98810A
S11306F0DF01A20FB11D3C9138839C938F5F215081
S1130700821790F3DF91CF911F910F9108951F935A
S1130710CF93DF93CDB7DEB728970FB6F894DEBF3B
S11307200FBECDBF182F862F4AE0BE016F5F7F4FEB
S113073090E0ACDF69E272E0812FFCDEBE016F5F06
S11307407F4F812FF7DE6CE272E0812FF3DE289673
S11307500FB6F894DEBF0FBECDBFDF91CF911F91CE
S113076008950F931F93CF93DF93CDB7DEB76097B0
S11307700FB6F894DEBF0FBECDBF182F862F042FFF
S11307804AE0BE016F5F7F4F90E080DF4AE0BE0128
S1130790675F7F4F802F90E079DF69E272E0812FFD
S11307A0C9DEBE01675F7F4F812FC4DE61E372E063
S11307B0812FC0DEBE016F5F7F4F812FBBDE63E3FD
S11307C072E0812FB7DE60960FB6F894DEBF0FBEDD
S11307D0CDBFDF91CF911F910F910895FC019081BE
S11307E090539A30A8F420E030E0A901440F551F3B
S11307F0220F331F220F331F220F331F240F351FE5
S11308009193290F311D908190539A3070F302C057
S113081020E030E0C90108951F920F920FB60F92A5
S113082011240BB60F922F933F938F939F93AF9303
S1130830BF93EF93FF93ACE3B3E0EDE3F3E02C91CC
S1130840808130E090E001978F739927281739074A
S1130850B1F3ACE3B3E0EC9181E08E0F8C93F0E064
S11308608091C600E450FD4F8083FF91EF91BF91CA
S1130870AF919F918F913F912F910F900BBE0F904D
S11308800FBE0F901F9018951F920F920FB60F92E4
S113089011240BB60F922F933F938F939F93AF9393
S11308A0BF93EF93FF93A2E0B4E0E3E0F4E02C9174
S11308B0808130E090E001978F73992728173907DA
S11308C0B1F3A2E0B4E0EC9181E08E0F8C93F0E000
S11308D08091CE00EE53FC4F8083FF91EF91BF9146
S11308E0AF919F918F913F912F910F900BBE0F90DD
S11308F00FBE0F901F9018951F920F920FB60F9274
S113090011240BB60F922F933F938F939F93AF9322
S1130910BF93EF93FF93A8EBB2E0E9EBF2E02C91E5
S1130920808130E090E001978F7399272817390769
S1130930B1F3A8EBB2E0EC9181E08E0F8C93F0E080
S11309408091D600E858FD4F8083FF91EF91BF91CD
S1130950AF919F918F913F912F910F900BBE0F906C
S11309600FBE0F901F9018951F920F920FB60F9203
S113097011240BB60F922F933F938F939F93AF93B2
S1130980BF93EF93FF93A4E4B4E0E5E4F4E02C9187
S1130990808130E090E001978F73992728173907F9
S11309A0B1F3A4E4B4E0EC9181E08E0F8C93F0E019
S11309B080913601EC5FFB4F8083FF91EF91BF91F3
S11309C0AF919F918F913F912F910F900BBE0F90FC
S11309D00FBE0F901F9018951F920F920FB60F9293
S11309E011240BB60F928F939F93AF93BF93EF9302
S11309F0FF939091760280917702981306C0E1EC00
S1130A00F0E080818F7D80830CC0A7E7B2E0EC9199
S1130A1081E08E0F8C93F0E0EA5CFD4F808180933F
S1130A20C600FF91EF91BF91AF919F918F910F906D
S1130A300BBE0F900FBE0F901F9018951F920F9230
S1130A400FB60F9211240BB60F928F939F93AF930F
S1130A50BF93EF93FF9390917E0380917F0398134C
S1130A6006C0E9ECF0E080818F7D80830CC0AFE7A5
S1130A70B3E0EC9181E08E0F8C93F0E0E25CFC4FEC
S1130A8080818093CE00FF91EF91BF91AF919F91B0
S1130A908F910F900BBE0F900FBE0F901F90189563
S1130AA01F920F920FB60F9211240BB60F928F93D1
S1130AB09F93AF93BF93EF93FF939091860480919C
S1130AC08704981306C0E1EDF0E080818F7D808378
S1130AD00CC0A7E8B4E0EC9181E08E0F8C93F0E0B9
S1130AE0EA5BFB4F80818093D600FF91EF91BF9129
S1130AF0AF919F918F910F900BBE0F900FBE0F90EF
S1130B001F9018951F920F920FB60F9211240BB6D7
S1130B100F928F939F93AF93BF93EF93FF93909113
S1130B20FA028091FB02981306C0E1E3F1E08081B0
S1130B308F7D80830CC0ABEFB2E0EC9181E08E0F2F
S1130B408C93F0E0E654FD4F808180933601FF9151
S1130B50EF91BF91AF919F918F910F900BBE0F902A
S1130B600FBE0F901F901895AA1BBB1B51E107C025
S1130B70AA1FBB1FA617B70710F0A61BB70B881F29
S1130B80991F5A95A9F780959095BC01CD010895B8
S1130B90A1E21A2EAA1BBB1BFD010DC0AA1FBB1F7D
S1130BA0EE1FFF1FA217B307E407F50720F0A21BEF
S1130BB0B30BE40BF50B661F771F881F991F1A945C
S1130BC069F760957095809590959B01AC01BD0186
S10B0BD0CF010895F894FFCF52
S1130BD8496E74726F6475636520756E206E756DE9
S1130BE865726F3A000A0D004865783A2000426938
S1130BF86E3A20001B5B324A001B5B003B34306DAD
S1090C08003B0066000041
S9030000FC
