:1000000071C000008EC000008CC000008AC00000DB
:1000100088C0000086C0000084C0000082C00000CC
:1000200080C000007EC000007CC000007AC00000DC
:1000300078C0000076C0000074C0000072C00000EC
:1000400070C000006EC000006CC000006AC00000FC
:1000500068C00000FEC2000064C0000062C0000072
:1000600060C000006DC500004BC600005AC0000013
:1000700058C0000056C0000054C0000052C000002C
:1000800050C000004EC000004CC000004AC000003C
:100090008FC5000067C6000044C0000042C00000D9
:1000A00040C000003EC000003CC000003AC000005C
:1000B00038C0000036C0000034C0000032C000006C
:1000C00030C000002EC000002CC00000A9C50000F8
:1000D0007BC6000026C00000DBC50000A7C60000EC
:1000E00020C0000011241FBECFEFD1E2DEBFCDBF84
:1000F00000E00CBF12E0A0E0B2E0E2EFFFE000E0C1
:100100000BBF02C007900D92AA33B107D9F724E0C4
:10011000AAE3B2E001C01D92AF3EB207E1F741D2BF
:1001200066C76ECF2F923F924F925F926F927F92EF
:100130008F929F92AF92BF92CF92DF92EF92FF92F7
:100140000F931F93CF93DF93CDB7DEB728970FB6EA
:10015000F894DEBF0FBECDBF422E532E642E752EF7
:10016000862E972E88879F830F2EF8EEAF2EF02DC8
:100170000F2EF3E0BF2EF02DC12CD12CE12CF12C51
:1001800000E010E0CCD60F2EFCE3AF2EF02DB12C0A
:10019000C4D62093490230934A020F2EF0E6AF2EC8
:1001A000F02D0F2EFAEEBF2EF02D242D352D462DDD
:1001B000572D682D792D88859F81B1D60F2EFCE3B0
:1001C000AF2EF02DB12CA9D620934D0230934E02C4
:1001D0006894AA24A7F80F2EFEEEBF2EF02D0F2E46
:1001E000F6E3CF2EF02D242D352D462D572D682DDD
:1001F000792D88859F8193D6222E332E49835A8369
:100200006B837C838D839E83A12C0F2EFCE2BF2EFB
:10021000F02D0F2EF1EBCF2EF02D0F2EF7E5DF2E68
:10022000F02D0F2EF7E0EF2EF02D242D352D462D3D
:10023000572D682D792D88859F8171D6822E932E1A
:100240008EE4881A88EF980A9092460280924502BE
:100250000F2EF8E3AF2EF02D0F2EF2E2BF2EF02D71
:10026000C12CD12CE12CF12C222D332D49815A8126
:100270006B817C818D819E8150D6422E532E642EBF
:10028000752E862E972E8A8399830F2EFAEDAF2E28
:10029000F02D6894BB24B1F842D620934B023093E2
:1002A0004C02242D352D462D572D682D792D8A8110
:1002B000998133D6422E532E642E752E862E972E7C
:1002C0008A8399830F2EF8E1AF2EF02DB12C27D61B
:1002D0002093470230934802242D352D462D572D6B
:1002E000682D792D8A81998118D620934F023093F9
:1002F000500228960FB6F894DEBF0FBECDBFDF9137
:10030000CF911F910F91FF90EF90DF90CF90BF9012
:10031000AF909F908F907F906F905F904F903F90A5
:100320002F900895AC0183709927892B99F49A0135
:100330003695279536952795ABE7B4E1DFD59695A9
:10034000879564E6689F9001699F300D11244217DC
:100350005307C9F49A01329522952F7023273F70D5
:100360002327AEE3BAE0CAD560E971E0869F900129
:10037000879F300D969F300D112481E0421753075F
:1003800019F080E0089581E008950F931F93CF93B3
:10039000DF938091490290914A0201968C33910536
:1003A00029F090934A02809349020DC010924A02AC
:1003B0001092490280914D0290914E0201969093C5
:1003C0004E0280934D0280914D0290914E02CC9747
:1003D00069F410924E0210924D0280914F0290915A
:1003E000500201969093500280934F0280914F02E9
:1003F00090915002489769F41092500210924F0267
:100400008091470290914802019690934802809310
:100410004702C0914B02D0914C02009147021091CB
:100420004802FE01E150FE4F808190E00817190755
:10043000C0F0C230D10551F480914502909146023E
:1004400071DF813019F40E31110500F181E090E087
:1004500090934802809347022196D0934C02C09318
:100460004B0280914B0290914C020D9779F481E000
:1004700090E090934C0280934B02809145029091C2
:10048000460201969093460280934502DF91CF91F8
:100490001F910F910895CF93DF9300D01F921F9269
:1004A000CDB7DEB772DF4AE0BE016F5F7F4F80914C
:1004B0004F0290915002C6D2BE016F5F7F4F80E025
:1004C00055D26AE380E0D0D14AE0BE016F5F7F4F32
:1004D00080914D0290914E02B5D2BE016F5F7F4F69
:1004E00080E044D26AE380E0BFD14AE0BE016F5FA2
:1004F0007F4F8091490290914A02A4D2BE016F5F62
:100500007F4F80E033D260E280E0AED14AE0BE01AE
:100510006F5F7F4F809147029091480293D2BE0156
:100520006F5F7F4F80E022D26FE280E09DD14AE092
:10053000BE016F5F7F4F80914B0290914C0282D23F
:10054000BE016F5F7F4F80E011D26FE280E08CD1FF
:100550004AE0BE016F5F7F4F809145029091460255
:1005600071D2BE016F5F7F4F80E000D20F900F907D
:100570000F900F900F90DF91CF9108958EEF8DB96E
:1005800014BC82E085BD6099FECF16BC609BFECF97
:1005900015BC86B590E001979093C5008093C40088
:1005A00008956894EE24E1F801E028E040E050E08E
:1005B000BA0180E0C8D0E2DF34D080E03FD241E031
:1005C00065E080E080D26CE072E080E0CFD1809185
:1005D000C4009091C5004AE061E572E033D261E564
:1005E00072E080E0C3D165E272E080E0BFD180E0DC
:1005F000CFD120EF34EC4BE155E960E771E080E0CA
:1006000090E090DD1ED08130E9F742E065E080E0C7
:100610005AD280E013D23FDF43E065E080E053D25E
:10062000F1CF16BC84B5826084BD85B5836085BD7D
:10063000EEE6F0E080818260808389EF87BD789468
:10064000089580914402882319F01092440281E0B9
:1006500008951F920F920FB60F9211240BB60F92AE
:100660002F933F934F935F936F937F938F939F93BA
:10067000AF93EF93FF93E0913A02F0913B023196F2
:10068000F0933B02E0933A0220913C0230913D020C
:1006900040913E0250913F026091400270914102B0
:1006A0008091420290914302A1E095D420933C02B4
:1006B00030933D0240933E0250933F0260934002CC
:1006C000709341028093420290934302E83EF340CC
:1006D00039F410923B0210923A0281E08093440276
:1006E000FF91EF91AF919F918F917F916F915F916A
:1006F0004F913F912F910F900BBE0F900FBE0F9017
:100700001F901895109261031092620310929B0241
:1007100010929C0210922704109228041092A303B6
:100720001092A4031092DD021092DE021092AB042C
:100730001092AC041092690410926A0410921F0384
:100740001092200308956F927F928F929F92CF9282
:10075000DF92EF92FF920F931F93CF93DF9300D01E
:1007600000D0CDB7DEB749835A836B837C83122FC9
:100770008330F9F090E06C01CC0CDD1CCC0CDD1C5E
:10078000CC0CDD1C960120543F4F3E832D83460147
:1007900031EC830E911CE2ECCE0ED11C8295929529
:1007A000907F9827807F98273C01F4EC6F0E711C96
:1007B00016C00F2EF2E3CF2EDD24D394F02D0F2E92
:1007C000F1E38F2E99249394F02D20E331E03E83C2
:1007D0002D830F2EF4E36F2E77247394F02D0130C8
:1007E00009F403E060E874E88EE190E029813A8141
:1007F0004B815C8161D321503109F3013183208326
:10080000ED81FE8180818260808388E9F4018083AC
:100810008E2D90E001977C01EE0CFF1CEE0CFF1C6E
:10082000EE0CFF1C812F90E00597880F991F8E29F1
:10083000F0E10F9F80011124802BF601808362DF9D
:10084000789426960FB6F894DEBF0FBECDBFDF9129
:10085000CF911F910F91FF90EF90DF90CF909F90DD
:100860008F907F906F900895813031F138F0823011
:1008700009F440C0833009F45BC00895ABE9B2E0ED
:10088000ECE9F2E02C91808130E090E001978F73E9
:10089000992728173907B1F3ABE9B2E0EC9181E071
:1008A0008E0F8C93F0E0E55AFD4F6083E1ECF0E0B1
:1008B0008081806280830895A3EAB3E0E4EAF3E0F4
:1008C0002C91808130E090E001978F739927281751
:1008D0003907B1F3A3EAB3E0EC9181E08E0F8C937A
:1008E000F0E0ED59FC4F6083E9ECF0E0808180623C
:1008F00080830895ABEAB4E0ECEAF4E02C918081C7
:1009000030E090E001978F73992728173907B1F3EA
:10091000ABEAB4E0EC9181E08E0F8C93F0E0E55906
:10092000FB4F6083E1EDF0E0808180628083089579
:10093000AFE1B3E0E0E2F3E02C91808130E090E0C1
:1009400001978F73992728173907B1F3AFE1B3E007
:10095000EC9181E08E0F8C93F0E0E152FD4F6083CB
:10096000E1E3F1E080818062808308951F93CF935B
:10097000DF93EB016881662339F0182F2196812FD0
:1009800073DF69916111FBCFDF91CF911F910895C2
:100990008130C9F028F0823049F18330D1F14CC068
:1009A000A1E6B3E0E2E6F3E09C9180819817E1F3E1
:1009B000A2E6B3E0EC9181E08E0F8C93F0E0EF5D66
:1009C000FC4F80810895A7E2B4E0E8E2F4E09C9156
:1009D00080819817E1F3A8E2B4E0EC9181E08E0FFA
:1009E0008C93F0E0E951FC4F80810895ADEDB2E0C9
:1009F000EEEDF2E09C9180819817E1F3AEEDB2E06C
:100A0000EC9181E08E0F8C93F0E0E356FD4F8081F6
:100A10000895A9E6B4E0EAE6F4E09C918081981795
:100A2000E1F3AAE6B4E0EC9181E08E0F8C93F0E064
:100A3000E75DFB4F8081089580E0089568E272E0F1
:100A400095CF08950F931F93CF93DF93EC01FB0194
:100A5000892B21F480E38083118230C020E0042FB1
:100A600010E001C0232FCE01B80112D2BC010A97B9
:100A700010F0695F7F4F31E0320F605D7F4FDF0123
:100A8000A20FB11D6C93CE01B80102D2EB01DF01C0
:100A9000A30FB11D1C92209729F7222379F080E043
:100AA000EF01C80FD11D9881DF01A20FB11D3C914C
:100AB00038839C938F5F2150821790F3DF91CF9101
:100AC0001F910F9108950F931F93CF93DF93CDB78D
:100AD000DEB760970FB6F894DEBF0FBECDBF182FFC
:100AE000862F042F4AE0BE016F5F7F4F90E0AADFA0
:100AF0004AE0BE01675F7F4F802F90E0A3DF6DE289
:100B000072E0812F33DFBE01675F7F4F812F2EDFC1
:100B100065E372E0812F2ADFBE016F5F7F4F812F77
:100B200025DF67E372E0812F21DF60960FB6F8942E
:100B3000DEBF0FBECDBFDF91CF911F910F91089502
:100B40001F920F920FB60F9211240BB60F922F9394
:100B50003F938F939F93AF93BF93EF93FF93A1E640
:100B6000B3E0E2E6F3E02C91808130E090E0019781
:100B70008F73992728173907B1F3A1E6B3E0EC91F9
:100B800081E08E0F8C93F0E08091C600EF5DFC4F0A
:100B90008083FF91EF91BF91AF919F918F913F9192
:100BA0002F910F900BBE0F900FBE0F901F901895B6
:100BB0001F920F920FB60F9211240BB60F922F9324
:100BC0003F938F939F93AF93BF93EF93FF93A7E2CE
:100BD000B4E0E8E2F4E02C91808130E090E001970D
:100BE0008F73992728173907B1F3A7E2B4E0EC9186
:100BF00081E08E0F8C93F0E08091CE00E951FC4FA4
:100C00008083FF91EF91BF91AF919F918F913F9121
:100C10002F910F900BBE0F900FBE0F901F90189545
:100C20001F920F920FB60F9211240BB60F922F93B3
:100C30003F938F939F93AF93BF93EF93FF93ADED4C
:100C4000B2E0EEEDF2E02C91808130E090E001978F
:100C50008F73992728173907B1F3ADEDB2E0EC9106
:100C600081E08E0F8C93F0E08091D600E356FD4F2B
:100C70008083FF91EF91BF91AF919F918F913F91B1
:100C80002F910F900BBE0F900FBE0F901F901895D5
:100C90001F920F920FB60F9211240BB60F922F9343
:100CA0003F938F939F93AF93BF93EF93FF93A9E6E7
:100CB000B4E0EAE6F4E02C91808130E090E0019726
:100CC0008F73992728173907B1F3A9E6B4E0EC919F
:100CD00081E08E0F8C93F0E080913601E75DFB4F51
:100CE0008083FF91EF91BF91AF919F918F913F9141
:100CF0002F910F900BBE0F900FBE0F901F90189565
:100D00001F920F920FB60F9211240BB60F928F9372
:100D10009F93AF93BF93EF93FF9390919B0280912A
:100D20009C02981306C0E1ECF0E080818F7D808307
:100D30000CC0ACE9B2E0EC9181E08E0F8C93F0E056
:100D4000E55AFD4F80818093C600FF91EF91BF91DE
:100D5000AF919F918F910F900BBE0F900FBE0F9090
:100D60001F9018951F920F920FB60F9211240BB679
:100D70000F928F939F93AF93BF93EF93FF939091B5
:100D8000A3038091A403981306C0E9ECF0E08081EE
:100D90008F7D80830CC0A4EAB3E0EC9181E08E0FDC
:100DA0008C93F0E0ED59FC4F80818093CE00FF9151
:100DB000EF91BF91AF919F918F910F900BBE0F90CC
:100DC0000FBE0F901F9018951F920F920FB60F92A3
:100DD00011240BB60F928F939F93AF93BF93EF9312
:100DE000FF939091AB048091AC04981306C0E1EDA1
:100DF000F0E080818F7D80830CC0ACEAB4E0EC91A0
:100E000081E08E0F8C93F0E0E559FB4F8081809359
:100E1000D600FF91EF91BF91AF919F918F910F906D
:100E20000BBE0F900FBE0F901F9018951F920F9240
:100E30000FB60F9211240BB60F928F939F93AF931F
:100E4000BF93EF93FF9390911F038091200398131A
:100E500006C0E1E3F1E080818F7D80830CC0A0E2D9
:100E6000B3E0EC9181E08E0F8C93F0E0E152FD4F06
:100E7000808180933601FF91EF91BF91AF919F9157
:100E80008F910F900BBE0F900FBE0F901F90189573
:100E9000AA1BBB1B51E107C0AA1FBB1FA617B707A0
:100EA00010F0A61BB70B881F991F5A95A9F78095BC
:100EB0009095BC01CD010895A1E21A2EAA1BBB1B7F
:100EC000FD010DC0AA1FBB1FEE1FFF1FA217B30716
:100ED000E407F50720F0A21BB30BE40BF50B661F2C
:100EE000771F881F991F1A9469F7609570958095F0
:100EF00090959B01AC01BD01CF010895A29FB00167
:100F0000B39FC001A39F700D811D1124911DB29F3D
:100F1000700D811D1124911D0895689401C0E894FD
:100F20008F929F92CF93DF9305D0DF91CF919F90C7
:100F30008F90089588249924F401E401B0E49F93EC
:100F4000AA279A158B049C04ED05FE05CF05D00752
:100F5000A10798F4AD2FDC2FCF2FFE2FE92D982C71
:100F6000892E982F872F762F652F542F432F322FBE
:100F70002227B85031F7BF9127C01B2EBF91BB2746
:100F8000220F331F441F551F661F771F881F991F8D
:100F9000881C991CEE1FFF1FCC1FDD1FAA1FBB1F43
:100FA0008A149B04EC05FD05CE05DF05A007B107FB
:100FB00048F08A189B08EC09FD09CE09DF09A00B4F
:100FC000B10B21601A94E1F62EF49401AF01BE0139
:100FD000CD01000C08950024A7FD00942A0F301DB8
:100FE000401D501D601D701D801D901D0895F894BA
:020FF000FFCF31
:100FF2001F1C1F1E1F1E1F1F1E1F1E1F4175746FE9
:1010020062617564696E6720646F6E652E20554259
:101012005252303D000A0D001B5B324A001B5B003E
:0A1022003B34306D003B0066000017
:00000001FF
